{
  "_format": "hh-sol-artifact-1",
  "contractName": "CustomCharityTest",
  "sourceName": "contracts/CustomCharityTest.sol",
  "abi": [
    {
      "inputs": [
        {
          "internalType": "address",
          "name": "_admin",
          "type": "address"
        },
        {
          "internalType": "address payable",
          "name": "_charityaddress",
          "type": "address"
        },
        {
          "internalType": "string",
          "name": "_uen",
          "type": "string"
        },
        {
          "internalType": "string",
          "name": "_charityname",
          "type": "string"
        }
      ],
      "stateMutability": "payable",
      "type": "constructor"
    },
    {
      "anonymous": false,
      "inputs": [
        {
          "indexed": true,
          "internalType": "address",
          "name": "from",
          "type": "address"
        },
        {
          "indexed": false,
          "internalType": "string",
          "name": "message",
          "type": "string"
        },
        {
          "indexed": false,
          "internalType": "uint256",
          "name": "timestamp",
          "type": "uint256"
        },
        {
          "indexed": false,
          "internalType": "uint256",
          "name": "amount",
          "type": "uint256"
        }
      ],
      "name": "NewOnchainPayment",
      "type": "event"
    },
    {
      "inputs": [
        {
          "internalType": "address",
          "name": "_address",
          "type": "address"
        }
      ],
      "name": "GetDonorDonations",
      "outputs": [
        {
          "internalType": "uint256",
          "name": "",
          "type": "uint256"
        }
      ],
      "stateMutability": "view",
      "type": "function"
    },
    {
      "inputs": [],
      "name": "GetDonors",
      "outputs": [
        {
          "internalType": "address[]",
          "name": "",
          "type": "address[]"
        }
      ],
      "stateMutability": "view",
      "type": "function"
    },
    {
      "inputs": [],
      "name": "GetNumOnlinePayments",
      "outputs": [
        {
          "internalType": "uint256",
          "name": "",
          "type": "uint256"
        }
      ],
      "stateMutability": "view",
      "type": "function"
    },
    {
      "inputs": [],
      "name": "GetOnlinePayments",
      "outputs": [
        {
          "components": [
            {
              "internalType": "address",
              "name": "donor",
              "type": "address"
            },
            {
              "internalType": "string",
              "name": "message",
              "type": "string"
            },
            {
              "internalType": "uint256",
              "name": "timestamp",
              "type": "uint256"
            },
            {
              "internalType": "uint256",
              "name": "amount",
              "type": "uint256"
            }
          ],
          "internalType": "struct CustomCharityTest.OnchainPayment[]",
          "name": "",
          "type": "tuple[]"
        }
      ],
      "stateMutability": "view",
      "type": "function"
    },
    {
      "inputs": [
        {
          "internalType": "string",
          "name": "_message",
          "type": "string"
        }
      ],
      "name": "MakeOnchainPayment",
      "outputs": [],
      "stateMutability": "payable",
      "type": "function"
    },
    {
      "inputs": [
        {
          "internalType": "address",
          "name": "owner",
          "type": "address"
        }
      ],
      "name": "addOwner",
      "outputs": [],
      "stateMutability": "nonpayable",
      "type": "function"
    },
    {
      "inputs": [],
      "name": "charityaddress",
      "outputs": [
        {
          "internalType": "address payable",
          "name": "",
          "type": "address"
        }
      ],
      "stateMutability": "view",
      "type": "function"
    },
    {
      "inputs": [],
      "name": "charityname",
      "outputs": [
        {
          "internalType": "string",
          "name": "",
          "type": "string"
        }
      ],
      "stateMutability": "view",
      "type": "function"
    },
    {
      "inputs": [
        {
          "internalType": "address",
          "name": "owner",
          "type": "address"
        }
      ],
      "name": "checkOwner",
      "outputs": [
        {
          "internalType": "bool",
          "name": "",
          "type": "bool"
        }
      ],
      "stateMutability": "view",
      "type": "function"
    },
    {
      "inputs": [],
      "name": "creator",
      "outputs": [
        {
          "internalType": "address",
          "name": "",
          "type": "address"
        }
      ],
      "stateMutability": "view",
      "type": "function"
    },
    {
      "inputs": [],
      "name": "donationcount",
      "outputs": [
        {
          "internalType": "uint256",
          "name": "",
          "type": "uint256"
        }
      ],
      "stateMutability": "view",
      "type": "function"
    },
    {
      "inputs": [
        {
          "internalType": "uint256",
          "name": "",
          "type": "uint256"
        }
      ],
      "name": "donors",
      "outputs": [
        {
          "internalType": "address",
          "name": "",
          "type": "address"
        }
      ],
      "stateMutability": "view",
      "type": "function"
    },
    {
      "inputs": [
        {
          "internalType": "address",
          "name": "owner",
          "type": "address"
        }
      ],
      "name": "removeOwner",
      "outputs": [],
      "stateMutability": "nonpayable",
      "type": "function"
    },
    {
      "inputs": [],
      "name": "uen",
      "outputs": [
        {
          "internalType": "string",
          "name": "",
          "type": "string"
        }
      ],
      "stateMutability": "view",
      "type": "function"
    },
    {
      "inputs": [
        {
          "internalType": "address payable",
          "name": "_oldaddress",
          "type": "address"
        },
        {
          "internalType": "address payable",
          "name": "_newaddress",
          "type": "address"
        }
      ],
      "name": "updateAddress",
      "outputs": [],
      "stateMutability": "nonpayable",
      "type": "function"
    },
    {
      "inputs": [
        {
          "internalType": "string",
          "name": "_newname",
          "type": "string"
        }
      ],
      "name": "updateName",
      "outputs": [
        {
          "internalType": "string",
          "name": "",
          "type": "string"
        }
      ],
      "stateMutability": "nonpayable",
      "type": "function"
    }
  ],
  "bytecode": "0x6080604052604051620023b7380380620023b7833981810160405281019062000029919062000327565b836000806101000a81548173ffffffffffffffffffffffffffffffffffffffff021916908373ffffffffffffffffffffffffffffffffffffffff16021790555082600160006101000a81548173ffffffffffffffffffffffffffffffffffffffff021916908373ffffffffffffffffffffffffffffffffffffffff1602179055508160039080519060200190620000c2929190620001d7565b5033600260006101000a81548173ffffffffffffffffffffffffffffffffffffffff021916908373ffffffffffffffffffffffffffffffffffffffff16021790555080600490805190602001906200011c929190620001d7565b506001600760008673ffffffffffffffffffffffffffffffffffffffff1673ffffffffffffffffffffffffffffffffffffffff16815260200190815260200160002060006101000a81548160ff0219169083151502179055506001600760008573ffffffffffffffffffffffffffffffffffffffff1673ffffffffffffffffffffffffffffffffffffffff16815260200190815260200160002060006101000a81548160ff02191690831515021790555050505050620005b1565b828054620001e590620004a2565b90600052602060002090601f01602090048101928262000209576000855562000255565b82601f106200022457805160ff191683800117855562000255565b8280016001018555821562000255579182015b828111156200025457825182559160200191906001019062000237565b5b50905062000264919062000268565b5090565b5b808211156200028357600081600090555060010162000269565b5090565b60006200029e6200029884620003ee565b620003c5565b905082815260208101848484011115620002b757600080fd5b620002c48482856200046c565b509392505050565b600081519050620002dd816200057d565b92915050565b600081519050620002f48162000597565b92915050565b600082601f8301126200030c57600080fd5b81516200031e84826020860162000287565b91505092915050565b600080600080608085870312156200033e57600080fd5b60006200034e87828801620002cc565b94505060206200036187828801620002e3565b935050604085015167ffffffffffffffff8111156200037f57600080fd5b6200038d87828801620002fa565b925050606085015167ffffffffffffffff811115620003ab57600080fd5b620003b987828801620002fa565b91505092959194509250565b6000620003d1620003e4565b9050620003df8282620004d8565b919050565b6000604051905090565b600067ffffffffffffffff8211156200040c576200040b6200053d565b5b62000417826200056c565b9050602081019050919050565b600062000431826200044c565b9050919050565b600062000445826200044c565b9050919050565b600073ffffffffffffffffffffffffffffffffffffffff82169050919050565b60005b838110156200048c5780820151818401526020810190506200046f565b838111156200049c576000848401525b50505050565b60006002820490506001821680620004bb57607f821691505b60208210811415620004d257620004d16200050e565b5b50919050565b620004e3826200056c565b810181811067ffffffffffffffff821117156200050557620005046200053d565b5b80604052505050565b7f4e487b7100000000000000000000000000000000000000000000000000000000600052602260045260246000fd5b7f4e487b7100000000000000000000000000000000000000000000000000000000600052604160045260246000fd5b6000601f19601f8301169050919050565b620005888162000424565b81146200059457600080fd5b50565b620005a28162000438565b8114620005ae57600080fd5b50565b611df680620005c16000396000f3fe6080604052600436106100f35760003560e01c80636a04d8371161008a5780639bfa882e116100595780639bfa882e1461031f578063ccd0010814610348578063dc5532d014610373578063e0e3671c1461039e576100f3565b80636a04d837146102635780637065cb481461028e57806384cd1b87146102b757806384da92a7146102e2576100f3565b80633e13464b116100c65780633e13464b146101a25780633f1456a4146101be5780634abfa163146101fb57806364e4cb6c14610238576100f3565b806302d05d3f146100f8578063131b57a814610123578063173825d91461014e5780632d7cb52a14610177575b600080fd5b34801561010457600080fd5b5061010d6103db565b60405161011a919061174d565b60405180910390f35b34801561012f57600080fd5b50610138610401565b6040516101459190611902565b60405180910390f35b34801561015a57600080fd5b5061017560048036038101906101709190611346565b61040b565b005b34801561018357600080fd5b5061018c6104f4565b60405161019991906117e2565b60405180910390f35b6101bc60048036038101906101b791906113ab565b610582565b005b3480156101ca57600080fd5b506101e560048036038101906101e09190611346565b610986565b6040516101f29190611902565b60405180910390f35b34801561020757600080fd5b50610222600480360381019061021d91906113ec565b6109cf565b60405161022f919061174d565b60405180910390f35b34801561024457600080fd5b5061024d610a0e565b60405161025a9190611902565b60405180910390f35b34801561026f57600080fd5b50610278610a14565b6040516102859190611768565b60405180910390f35b34801561029a57600080fd5b506102b560048036038101906102b09190611346565b610a3a565b005b3480156102c357600080fd5b506102cc610b23565b6040516102d991906117e2565b60405180910390f35b3480156102ee57600080fd5b50610309600480360381019061030491906113ab565b610bb1565b60405161031691906117e2565b60405180910390f35b34801561032b57600080fd5b506103466004803603810190610341919061136f565b610ce8565b005b34801561035457600080fd5b5061035d610efb565b60405161036a91906117a5565b60405180910390f35b34801561037f57600080fd5b50610388611056565b6040516103959190611783565b60405180910390f35b3480156103aa57600080fd5b506103c560048036038101906103c09190611346565b6110e4565b6040516103d291906117c7565b60405180910390f35b600260009054906101000a900473ffffffffffffffffffffffffffffffffffffffff1681565b6000600554905090565b60008054906101000a900473ffffffffffffffffffffffffffffffffffffffff1673ffffffffffffffffffffffffffffffffffffffff163373ffffffffffffffffffffffffffffffffffffffff1614610499576040517f08c379a000000000000000000000000000000000000000000000000000000000815260040161049090611842565b60405180910390fd5b6000600760008373ffffffffffffffffffffffffffffffffffffffff1673ffffffffffffffffffffffffffffffffffffffff16815260200190815260200160002060006101000a81548160ff02191690831515021790555050565b6003805461050190611b0f565b80601f016020809104026020016040519081016040528092919081815260200182805461052d90611b0f565b801561057a5780601f1061054f5761010080835404028352916020019161057a565b820191906000526020600020905b81548152906001019060200180831161055d57829003601f168201915b505050505081565b600066038d7ea4c680009050803410156105d1576040517f08c379a00000000000000000000000000000000000000000000000000000000081526004016105c8906118a2565b60405180910390fd5b61060f6040518060400160405280601a81526020017f4d616b696e67206f6e636861696e207472616e736665722e2e2e00000000000081525061113a565b343373ffffffffffffffffffffffffffffffffffffffff16311015610669576040517f08c379a0000000000000000000000000000000000000000000000000000000008152600401610660906118c2565b60405180910390fd5b60016005600082825461067c9190611a1d565b92505081905550600960405180608001604052803373ffffffffffffffffffffffffffffffffffffffff16815260200184815260200142815260200134815250908060018154018082558091505060019003906000526020600020906004020160009091909190915060008201518160000160006101000a81548173ffffffffffffffffffffffffffffffffffffffff021916908373ffffffffffffffffffffffffffffffffffffffff16021790555060208201518160010190805190602001906107489291906111fc565b50604082015181600201556060820151816003015550503373ffffffffffffffffffffffffffffffffffffffff167ff72404e234872ad3e8ea1fcaf180ea0037a90c86e650f425e96433dc5384bfeb8342346040516107a993929190611804565b60405180910390a26000600860003373ffffffffffffffffffffffffffffffffffffffff1673ffffffffffffffffffffffffffffffffffffffff1681526020019081526020016000205490506000811415610862576006339080600181540180825580915050600190039060005260206000200160009091909190916101000a81548173ffffffffffffffffffffffffffffffffffffffff021916908373ffffffffffffffffffffffffffffffffffffffff1602179055505b60018161086f9190611a1d565b600860003373ffffffffffffffffffffffffffffffffffffffff1673ffffffffffffffffffffffffffffffffffffffff168152602001908152602001600020819055506000600160009054906101000a900473ffffffffffffffffffffffffffffffffffffffff1673ffffffffffffffffffffffffffffffffffffffff16346040516108fa90611738565b60006040518083038185875af1925050503d8060008114610937576040519150601f19603f3d011682016040523d82523d6000602084013e61093c565b606091505b5050905080610980576040517f08c379a000000000000000000000000000000000000000000000000000000000815260040161097790611862565b60405180910390fd5b50505050565b6000600860008373ffffffffffffffffffffffffffffffffffffffff1673ffffffffffffffffffffffffffffffffffffffff168152602001908152602001600020549050919050565b600681815481106109df57600080fd5b906000526020600020016000915054906101000a900473ffffffffffffffffffffffffffffffffffffffff1681565b60055481565b600160009054906101000a900473ffffffffffffffffffffffffffffffffffffffff1681565b60008054906101000a900473ffffffffffffffffffffffffffffffffffffffff1673ffffffffffffffffffffffffffffffffffffffff163373ffffffffffffffffffffffffffffffffffffffff1614610ac8576040517f08c379a0000000000000000000000000000000000000000000000000000000008152600401610abf90611842565b60405180910390fd5b6001600760008373ffffffffffffffffffffffffffffffffffffffff1673ffffffffffffffffffffffffffffffffffffffff16815260200190815260200160002060006101000a81548160ff02191690831515021790555050565b60048054610b3090611b0f565b80601f0160208091040260200160405190810160405280929190818152602001828054610b5c90611b0f565b8015610ba95780601f10610b7e57610100808354040283529160200191610ba9565b820191906000526020600020905b815481529060010190602001808311610b8c57829003601f168201915b505050505081565b6060600760003373ffffffffffffffffffffffffffffffffffffffff1673ffffffffffffffffffffffffffffffffffffffff16815260200190815260200160002060009054906101000a900460ff16610c3f576040517f08c379a0000000000000000000000000000000000000000000000000000000008152600401610c3690611882565b60405180910390fd5b8160049080519060200190610c559291906111fc565b5060048054610c6390611b0f565b80601f0160208091040260200160405190810160405280929190818152602001828054610c8f90611b0f565b8015610cdc5780601f10610cb157610100808354040283529160200191610cdc565b820191906000526020600020905b815481529060010190602001808311610cbf57829003601f168201915b50505050509050919050565b60008054906101000a900473ffffffffffffffffffffffffffffffffffffffff1673ffffffffffffffffffffffffffffffffffffffff163373ffffffffffffffffffffffffffffffffffffffff1614610d76576040517f08c379a0000000000000000000000000000000000000000000000000000000008152600401610d6d90611842565b60405180910390fd5b8173ffffffffffffffffffffffffffffffffffffffff16600160009054906101000a900473ffffffffffffffffffffffffffffffffffffffff1673ffffffffffffffffffffffffffffffffffffffff1614610e06576040517f08c379a0000000000000000000000000000000000000000000000000000000008152600401610dfd906118e2565b60405180910390fd5b6000600760008473ffffffffffffffffffffffffffffffffffffffff1673ffffffffffffffffffffffffffffffffffffffff16815260200190815260200160002060006101000a81548160ff0219169083151502179055506001600760008373ffffffffffffffffffffffffffffffffffffffff1673ffffffffffffffffffffffffffffffffffffffff16815260200190815260200160002060006101000a81548160ff02191690831515021790555080600160006101000a81548173ffffffffffffffffffffffffffffffffffffffff021916908373ffffffffffffffffffffffffffffffffffffffff1602179055505050565b60606009805480602002602001604051908101604052809291908181526020016000905b8282101561104d57838290600052602060002090600402016040518060800160405290816000820160009054906101000a900473ffffffffffffffffffffffffffffffffffffffff1673ffffffffffffffffffffffffffffffffffffffff1673ffffffffffffffffffffffffffffffffffffffff168152602001600182018054610fa890611b0f565b80601f0160208091040260200160405190810160405280929190818152602001828054610fd490611b0f565b80156110215780601f10610ff657610100808354040283529160200191611021565b820191906000526020600020905b81548152906001019060200180831161100457829003601f168201915b505050505081526020016002820154815260200160038201548152505081526020019060010190610f1f565b50505050905090565b606060068054806020026020016040519081016040528092919081815260200182805480156110da57602002820191906000526020600020905b8160009054906101000a900473ffffffffffffffffffffffffffffffffffffffff1673ffffffffffffffffffffffffffffffffffffffff1681526020019060010190808311611090575b5050505050905090565b6000600760008373ffffffffffffffffffffffffffffffffffffffff1673ffffffffffffffffffffffffffffffffffffffff16815260200190815260200160002060009054906101000a900460ff169050919050565b6111d08160405160240161114e91906117e2565b6040516020818303038152906040527f41304fac000000000000000000000000000000000000000000000000000000007bffffffffffffffffffffffffffffffffffffffffffffffffffffffff19166020820180517bffffffffffffffffffffffffffffffffffffffffffffffffffffffff83818316178352505050506111d3565b50565b60008151905060006a636f6e736f6c652e6c6f679050602083016000808483855afa5050505050565b82805461120890611b0f565b90600052602060002090601f01602090048101928261122a5760008555611271565b82601f1061124357805160ff1916838001178555611271565b82800160010185558215611271579182015b82811115611270578251825591602001919060010190611255565b5b50905061127e9190611282565b5090565b5b8082111561129b576000816000905550600101611283565b5090565b60006112b26112ad84611942565b61191d565b9050828152602081018484840111156112ca57600080fd5b6112d5848285611acd565b509392505050565b6000813590506112ec81611d7b565b92915050565b60008135905061130181611d92565b92915050565b600082601f83011261131857600080fd5b813561132884826020860161129f565b91505092915050565b60008135905061134081611da9565b92915050565b60006020828403121561135857600080fd5b6000611366848285016112dd565b91505092915050565b6000806040838503121561138257600080fd5b6000611390858286016112f2565b92505060206113a1858286016112f2565b9150509250929050565b6000602082840312156113bd57600080fd5b600082013567ffffffffffffffff8111156113d757600080fd5b6113e384828501611307565b91505092915050565b6000602082840312156113fe57600080fd5b600061140c84828501611331565b91505092915050565b60006114218383611450565b60208301905092915050565b600061143983836116b7565b905092915050565b61144a81611a85565b82525050565b61145981611a73565b82525050565b61146881611a73565b82525050565b600061147982611993565b61148381856119ce565b935061148e83611973565b8060005b838110156114bf5781516114a68882611415565b97506114b1836119b4565b925050600181019050611492565b5085935050505092915050565b60006114d78261199e565b6114e181856119df565b9350836020820285016114f385611983565b8060005b8581101561152f5784840389528151611510858261142d565b945061151b836119c1565b925060208a019950506001810190506114f7565b50829750879550505050505092915050565b61154a81611a97565b82525050565b600061155b826119a9565b61156581856119fb565b9350611575818560208601611adc565b61157e81611bff565b840191505092915050565b6000611594826119a9565b61159e8185611a0c565b93506115ae818560208601611adc565b6115b781611bff565b840191505092915050565b60006115cf602383611a0c565b91506115da82611c10565b604082019050919050565b60006115f2601483611a0c565b91506115fd82611c5f565b602082019050919050565b6000611615602483611a0c565b915061162082611c88565b604082019050919050565b6000611638601683611a0c565b915061164382611cd7565b602082019050919050565b600061165b6000836119f0565b915061166682611d00565b600082019050919050565b600061167e602583611a0c565b915061168982611d03565b604082019050919050565b60006116a1601783611a0c565b91506116ac82611d52565b602082019050919050565b60006080830160008301516116cf6000860182611450565b50602083015184820360208601526116e78282611550565b91505060408301516116fc604086018261171a565b50606083015161170f606086018261171a565b508091505092915050565b61172381611ac3565b82525050565b61173281611ac3565b82525050565b60006117438261164e565b9150819050919050565b6000602082019050611762600083018461145f565b92915050565b600060208201905061177d6000830184611441565b92915050565b6000602082019050818103600083015261179d818461146e565b905092915050565b600060208201905081810360008301526117bf81846114cc565b905092915050565b60006020820190506117dc6000830184611541565b92915050565b600060208201905081810360008301526117fc8184611589565b905092915050565b6000606082019050818103600083015261181e8186611589565b905061182d6020830185611729565b61183a6040830184611729565b949350505050565b6000602082019050818103600083015261185b816115c2565b9050919050565b6000602082019050818103600083015261187b816115e5565b9050919050565b6000602082019050818103600083015261189b81611608565b9050919050565b600060208201905081810360008301526118bb8161162b565b9050919050565b600060208201905081810360008301526118db81611671565b9050919050565b600060208201905081810360008301526118fb81611694565b9050919050565b60006020820190506119176000830184611729565b92915050565b6000611927611938565b90506119338282611b41565b919050565b6000604051905090565b600067ffffffffffffffff82111561195d5761195c611bd0565b5b61196682611bff565b9050602081019050919050565b6000819050602082019050919050565b6000819050602082019050919050565b600081519050919050565b600081519050919050565b600081519050919050565b6000602082019050919050565b6000602082019050919050565b600082825260208201905092915050565b600082825260208201905092915050565b600081905092915050565b600082825260208201905092915050565b600082825260208201905092915050565b6000611a2882611ac3565b9150611a3383611ac3565b9250827fffffffffffffffffffffffffffffffffffffffffffffffffffffffffffffffff03821115611a6857611a67611b72565b5b828201905092915050565b6000611a7e82611aa3565b9050919050565b6000611a9082611aa3565b9050919050565b60008115159050919050565b600073ffffffffffffffffffffffffffffffffffffffff82169050919050565b6000819050919050565b82818337600083830152505050565b60005b83811015611afa578082015181840152602081019050611adf565b83811115611b09576000848401525b50505050565b60006002820490506001821680611b2757607f821691505b60208210811415611b3b57611b3a611ba1565b5b50919050565b611b4a82611bff565b810181811067ffffffffffffffff82111715611b6957611b68611bd0565b5b80604052505050565b7f4e487b7100000000000000000000000000000000000000000000000000000000600052601160045260246000fd5b7f4e487b7100000000000000000000000000000000000000000000000000000000600052602260045260246000fd5b7f4e487b7100000000000000000000000000000000000000000000000000000000600052604160045260246000fd5b6000601f19601f8301169050919050565b7f4f6e6c792061646d696e2063616e2061636365737320746869732066756e637460008201527f696f6e0000000000000000000000000000000000000000000000000000000000602082015250565b7f4661696c656420746f2073656e64206d6f6e6579000000000000000000000000600082015250565b7f4f6e6c79206f776e6572732063616e2061636365737320746869732066756e6360008201527f74696f6e00000000000000000000000000000000000000000000000000000000602082015250565b7f56616c756520746f6f206c6f7720746f2073656e642100000000000000000000600082015250565b50565b7f596f7520646f6e2774206861766520656e6f75676820657468657220666f722060008201527f7468697321000000000000000000000000000000000000000000000000000000602082015250565b7f41646472657373657320646f206e6f74206d6174636821000000000000000000600082015250565b611d8481611a73565b8114611d8f57600080fd5b50565b611d9b81611a85565b8114611da657600080fd5b50565b611db281611ac3565b8114611dbd57600080fd5b5056fea2646970667358221220f2277b6dd04db04229695239f29ac46b209b05c9eb55bbc9fd71fb0ee9c6b2b964736f6c63430008040033",
  "linkReferences": {},
  "deployedLinkReferences": {}
}