{
  "_format": "hh-sol-artifact-1",
  "contractName": "CustomCharityTest",
  "sourceName": "contracts/CustomCharityTest.sol",
  "abi": [
    {
      "inputs": [
        {
          "internalType": "address",
          "name": "_admin",
          "type": "address"
        },
        {
          "internalType": "address payable",
          "name": "_charityaddress",
          "type": "address"
        },
        {
          "internalType": "string",
          "name": "_uen",
          "type": "string"
        },
        {
          "internalType": "string",
          "name": "_charityname",
          "type": "string"
        }
      ],
      "stateMutability": "payable",
      "type": "constructor"
    },
    {
      "anonymous": false,
      "inputs": [
        {
          "indexed": true,
          "internalType": "address",
          "name": "from",
          "type": "address"
        },
        {
          "indexed": false,
          "internalType": "string",
          "name": "message",
          "type": "string"
        },
        {
          "indexed": false,
          "internalType": "uint256",
          "name": "timestamp",
          "type": "uint256"
        },
        {
          "indexed": false,
          "internalType": "uint256",
          "name": "amount",
          "type": "uint256"
        }
      ],
      "name": "NewOnchainPayment",
      "type": "event"
    },
    {
      "inputs": [
        {
          "internalType": "address",
          "name": "_address",
          "type": "address"
        }
      ],
      "name": "GetDonorDonations",
      "outputs": [
        {
          "internalType": "uint256",
          "name": "",
          "type": "uint256"
        }
      ],
      "stateMutability": "view",
      "type": "function"
    },
    {
      "inputs": [],
      "name": "GetDonors",
      "outputs": [
        {
          "internalType": "address[]",
          "name": "",
          "type": "address[]"
        }
      ],
      "stateMutability": "view",
      "type": "function"
    },
    {
      "inputs": [],
      "name": "GetNumOnlinePayments",
      "outputs": [
        {
          "internalType": "uint256",
          "name": "",
          "type": "uint256"
        }
      ],
      "stateMutability": "view",
      "type": "function"
    },
    {
      "inputs": [],
      "name": "GetOnlinePayments",
      "outputs": [
        {
          "components": [
            {
              "internalType": "address",
              "name": "donor",
              "type": "address"
            },
            {
              "internalType": "string",
              "name": "message",
              "type": "string"
            },
            {
              "internalType": "uint256",
              "name": "timestamp",
              "type": "uint256"
            },
            {
              "internalType": "uint256",
              "name": "amount",
              "type": "uint256"
            }
          ],
          "internalType": "struct CustomCharityTest.OnchainPayment[]",
          "name": "",
          "type": "tuple[]"
        }
      ],
      "stateMutability": "view",
      "type": "function"
    },
    {
      "inputs": [
        {
          "internalType": "string",
          "name": "_message",
          "type": "string"
        }
      ],
      "name": "MakeOnchainPayment",
      "outputs": [],
      "stateMutability": "payable",
      "type": "function"
    },
    {
      "inputs": [
        {
          "internalType": "address",
          "name": "owner",
          "type": "address"
        }
      ],
      "name": "addOwner",
      "outputs": [],
      "stateMutability": "nonpayable",
      "type": "function"
    },
    {
      "inputs": [],
      "name": "charityaddress",
      "outputs": [
        {
          "internalType": "address payable",
          "name": "",
          "type": "address"
        }
      ],
      "stateMutability": "view",
      "type": "function"
    },
    {
      "inputs": [],
      "name": "charityname",
      "outputs": [
        {
          "internalType": "string",
          "name": "",
          "type": "string"
        }
      ],
      "stateMutability": "view",
      "type": "function"
    },
    {
      "inputs": [
        {
          "internalType": "address",
          "name": "owner",
          "type": "address"
        }
      ],
      "name": "checkOwner",
      "outputs": [
        {
          "internalType": "bool",
          "name": "",
          "type": "bool"
        }
      ],
      "stateMutability": "view",
      "type": "function"
    },
    {
      "inputs": [],
      "name": "donationcount",
      "outputs": [
        {
          "internalType": "uint256",
          "name": "",
          "type": "uint256"
        }
      ],
      "stateMutability": "view",
      "type": "function"
    },
    {
      "inputs": [
        {
          "internalType": "uint256",
          "name": "",
          "type": "uint256"
        }
      ],
      "name": "donors",
      "outputs": [
        {
          "internalType": "address",
          "name": "",
          "type": "address"
        }
      ],
      "stateMutability": "view",
      "type": "function"
    },
    {
      "inputs": [
        {
          "internalType": "address",
          "name": "owner",
          "type": "address"
        }
      ],
      "name": "removeOwner",
      "outputs": [],
      "stateMutability": "nonpayable",
      "type": "function"
    },
    {
      "inputs": [],
      "name": "uen",
      "outputs": [
        {
          "internalType": "string",
          "name": "",
          "type": "string"
        }
      ],
      "stateMutability": "view",
      "type": "function"
    },
    {
      "inputs": [
        {
          "internalType": "address payable",
          "name": "_oldaddress",
          "type": "address"
        },
        {
          "internalType": "address payable",
          "name": "_newaddress",
          "type": "address"
        }
      ],
      "name": "updateAddress",
      "outputs": [],
      "stateMutability": "nonpayable",
      "type": "function"
    },
    {
      "inputs": [
        {
          "internalType": "string",
          "name": "_newname",
          "type": "string"
        }
      ],
      "name": "updateName",
      "outputs": [
        {
          "internalType": "string",
          "name": "",
          "type": "string"
        }
      ],
      "stateMutability": "nonpayable",
      "type": "function"
    }
  ],
  "bytecode": "0x608060405260405162002358380380620023588339818101604052810190620000299190620002e6565b836000806101000a81548173ffffffffffffffffffffffffffffffffffffffff021916908373ffffffffffffffffffffffffffffffffffffffff16021790555082600160006101000a81548173ffffffffffffffffffffffffffffffffffffffff021916908373ffffffffffffffffffffffffffffffffffffffff1602179055508160029080519060200190620000c292919062000196565b508060039080519060200190620000db92919062000196565b506001600660008673ffffffffffffffffffffffffffffffffffffffff1673ffffffffffffffffffffffffffffffffffffffff16815260200190815260200160002060006101000a81548160ff0219169083151502179055506001600660008573ffffffffffffffffffffffffffffffffffffffff1673ffffffffffffffffffffffffffffffffffffffff16815260200190815260200160002060006101000a81548160ff0219169083151502179055505050505062000570565b828054620001a49062000461565b90600052602060002090601f016020900481019282620001c8576000855562000214565b82601f10620001e357805160ff191683800117855562000214565b8280016001018555821562000214579182015b8281111562000213578251825591602001919060010190620001f6565b5b50905062000223919062000227565b5090565b5b808211156200024257600081600090555060010162000228565b5090565b60006200025d6200025784620003ad565b62000384565b9050828152602081018484840111156200027657600080fd5b620002838482856200042b565b509392505050565b6000815190506200029c816200053c565b92915050565b600081519050620002b38162000556565b92915050565b600082601f830112620002cb57600080fd5b8151620002dd84826020860162000246565b91505092915050565b60008060008060808587031215620002fd57600080fd5b60006200030d878288016200028b565b94505060206200032087828801620002a2565b935050604085015167ffffffffffffffff8111156200033e57600080fd5b6200034c87828801620002b9565b925050606085015167ffffffffffffffff8111156200036a57600080fd5b6200037887828801620002b9565b91505092959194509250565b600062000390620003a3565b90506200039e828262000497565b919050565b6000604051905090565b600067ffffffffffffffff821115620003cb57620003ca620004fc565b5b620003d6826200052b565b9050602081019050919050565b6000620003f0826200040b565b9050919050565b600062000404826200040b565b9050919050565b600073ffffffffffffffffffffffffffffffffffffffff82169050919050565b60005b838110156200044b5780820151818401526020810190506200042e565b838111156200045b576000848401525b50505050565b600060028204905060018216806200047a57607f821691505b60208210811415620004915762000490620004cd565b5b50919050565b620004a2826200052b565b810181811067ffffffffffffffff82111715620004c457620004c3620004fc565b5b80604052505050565b7f4e487b7100000000000000000000000000000000000000000000000000000000600052602260045260246000fd5b7f4e487b7100000000000000000000000000000000000000000000000000000000600052604160045260246000fd5b6000601f19601f8301169050919050565b6200054781620003e3565b81146200055357600080fd5b50565b6200056181620003f7565b81146200056d57600080fd5b50565b611dd880620005806000396000f3fe6080604052600436106100e85760003560e01c80636a04d8371161008a5780639bfa882e116100595780639bfa882e146102e9578063ccd0010814610312578063dc5532d01461033d578063e0e3671c14610368576100e8565b80636a04d8371461022d5780637065cb481461025857806384cd1b871461028157806384da92a7146102ac576100e8565b80633e13464b116100c65780633e13464b1461016c5780633f1456a4146101885780634abfa163146101c557806364e4cb6c14610202576100e8565b8063131b57a8146100ed578063173825d9146101185780632d7cb52a14610141575b600080fd5b3480156100f957600080fd5b506101026103a5565b60405161010f91906118e4565b60405180910390f35b34801561012457600080fd5b5061013f600480360381019061013a9190611328565b6103af565b005b34801561014d57600080fd5b50610156610498565b60405161016391906117c4565b60405180910390f35b6101866004803603810190610181919061138d565b610526565b005b34801561019457600080fd5b506101af60048036038101906101aa9190611328565b610968565b6040516101bc91906118e4565b60405180910390f35b3480156101d157600080fd5b506101ec60048036038101906101e791906113ce565b6109b1565b6040516101f9919061172f565b60405180910390f35b34801561020e57600080fd5b506102176109f0565b60405161022491906118e4565b60405180910390f35b34801561023957600080fd5b506102426109f6565b60405161024f919061174a565b60405180910390f35b34801561026457600080fd5b5061027f600480360381019061027a9190611328565b610a1c565b005b34801561028d57600080fd5b50610296610b05565b6040516102a391906117c4565b60405180910390f35b3480156102b857600080fd5b506102d360048036038101906102ce919061138d565b610b93565b6040516102e091906117c4565b60405180910390f35b3480156102f557600080fd5b50610310600480360381019061030b9190611351565b610cca565b005b34801561031e57600080fd5b50610327610edd565b6040516103349190611787565b60405180910390f35b34801561034957600080fd5b50610352611038565b60405161035f9190611765565b60405180910390f35b34801561037457600080fd5b5061038f600480360381019061038a9190611328565b6110c6565b60405161039c91906117a9565b60405180910390f35b6000600454905090565b60008054906101000a900473ffffffffffffffffffffffffffffffffffffffff1673ffffffffffffffffffffffffffffffffffffffff163373ffffffffffffffffffffffffffffffffffffffff161461043d576040517f08c379a000000000000000000000000000000000000000000000000000000000815260040161043490611824565b60405180910390fd5b6000600660008373ffffffffffffffffffffffffffffffffffffffff1673ffffffffffffffffffffffffffffffffffffffff16815260200190815260200160002060006101000a81548160ff02191690831515021790555050565b600280546104a590611af1565b80601f01602080910402602001604051908101604052809291908181526020018280546104d190611af1565b801561051e5780601f106104f35761010080835404028352916020019161051e565b820191906000526020600020905b81548152906001019060200180831161050157829003601f168201915b505050505081565b600066038d7ea4c68000905080341015610575576040517f08c379a000000000000000000000000000000000000000000000000000000000815260040161056c90611884565b60405180910390fd5b6105b36040518060400160405280601a81526020017f4d616b696e67206f6e636861696e207472616e736665722e2e2e00000000000081525061111c565b343373ffffffffffffffffffffffffffffffffffffffff1631101561060d576040517f08c379a0000000000000000000000000000000000000000000000000000000008152600401610604906118a4565b60405180910390fd5b60016004600082825461062091906119ff565b92505081905550600860405180608001604052803373ffffffffffffffffffffffffffffffffffffffff16815260200184815260200142815260200134815250908060018154018082558091505060019003906000526020600020906004020160009091909190915060008201518160000160006101000a81548173ffffffffffffffffffffffffffffffffffffffff021916908373ffffffffffffffffffffffffffffffffffffffff16021790555060208201518160010190805190602001906106ec9291906111de565b50604082015181600201556060820151816003015550503373ffffffffffffffffffffffffffffffffffffffff167ff72404e234872ad3e8ea1fcaf180ea0037a90c86e650f425e96433dc5384bfeb83423460405161074d939291906117e6565b60405180910390a26000600760003373ffffffffffffffffffffffffffffffffffffffff1673ffffffffffffffffffffffffffffffffffffffff1681526020019081526020016000205490506000811415610806576005339080600181540180825580915050600190039060005260206000200160009091909190916101000a81548173ffffffffffffffffffffffffffffffffffffffff021916908373ffffffffffffffffffffffffffffffffffffffff1602179055505b60018161081391906119ff565b600760003373ffffffffffffffffffffffffffffffffffffffff1673ffffffffffffffffffffffffffffffffffffffff168152602001908152602001600020819055506000600160009054906101000a900473ffffffffffffffffffffffffffffffffffffffff1673ffffffffffffffffffffffffffffffffffffffff163460405161089e9061171a565b60006040518083038185875af1925050503d80600081146108db576040519150601f19603f3d011682016040523d82523d6000602084013e6108e0565b606091505b5050905080610924576040517f08c379a000000000000000000000000000000000000000000000000000000000815260040161091b90611844565b60405180910390fd5b6109626040518060400160405280601481526020017f5472616e73616374696f6e20636f6d706c65746500000000000000000000000081525061111c565b50505050565b6000600760008373ffffffffffffffffffffffffffffffffffffffff1673ffffffffffffffffffffffffffffffffffffffff168152602001908152602001600020549050919050565b600581815481106109c157600080fd5b906000526020600020016000915054906101000a900473ffffffffffffffffffffffffffffffffffffffff1681565b60045481565b600160009054906101000a900473ffffffffffffffffffffffffffffffffffffffff1681565b60008054906101000a900473ffffffffffffffffffffffffffffffffffffffff1673ffffffffffffffffffffffffffffffffffffffff163373ffffffffffffffffffffffffffffffffffffffff1614610aaa576040517f08c379a0000000000000000000000000000000000000000000000000000000008152600401610aa190611824565b60405180910390fd5b6001600660008373ffffffffffffffffffffffffffffffffffffffff1673ffffffffffffffffffffffffffffffffffffffff16815260200190815260200160002060006101000a81548160ff02191690831515021790555050565b60038054610b1290611af1565b80601f0160208091040260200160405190810160405280929190818152602001828054610b3e90611af1565b8015610b8b5780601f10610b6057610100808354040283529160200191610b8b565b820191906000526020600020905b815481529060010190602001808311610b6e57829003601f168201915b505050505081565b6060600660003373ffffffffffffffffffffffffffffffffffffffff1673ffffffffffffffffffffffffffffffffffffffff16815260200190815260200160002060009054906101000a900460ff16610c21576040517f08c379a0000000000000000000000000000000000000000000000000000000008152600401610c1890611864565b60405180910390fd5b8160039080519060200190610c379291906111de565b5060038054610c4590611af1565b80601f0160208091040260200160405190810160405280929190818152602001828054610c7190611af1565b8015610cbe5780601f10610c9357610100808354040283529160200191610cbe565b820191906000526020600020905b815481529060010190602001808311610ca157829003601f168201915b50505050509050919050565b60008054906101000a900473ffffffffffffffffffffffffffffffffffffffff1673ffffffffffffffffffffffffffffffffffffffff163373ffffffffffffffffffffffffffffffffffffffff1614610d58576040517f08c379a0000000000000000000000000000000000000000000000000000000008152600401610d4f90611824565b60405180910390fd5b8173ffffffffffffffffffffffffffffffffffffffff16600160009054906101000a900473ffffffffffffffffffffffffffffffffffffffff1673ffffffffffffffffffffffffffffffffffffffff1614610de8576040517f08c379a0000000000000000000000000000000000000000000000000000000008152600401610ddf906118c4565b60405180910390fd5b6000600660008473ffffffffffffffffffffffffffffffffffffffff1673ffffffffffffffffffffffffffffffffffffffff16815260200190815260200160002060006101000a81548160ff0219169083151502179055506001600660008373ffffffffffffffffffffffffffffffffffffffff1673ffffffffffffffffffffffffffffffffffffffff16815260200190815260200160002060006101000a81548160ff02191690831515021790555080600160006101000a81548173ffffffffffffffffffffffffffffffffffffffff021916908373ffffffffffffffffffffffffffffffffffffffff1602179055505050565b60606008805480602002602001604051908101604052809291908181526020016000905b8282101561102f57838290600052602060002090600402016040518060800160405290816000820160009054906101000a900473ffffffffffffffffffffffffffffffffffffffff1673ffffffffffffffffffffffffffffffffffffffff1673ffffffffffffffffffffffffffffffffffffffff168152602001600182018054610f8a90611af1565b80601f0160208091040260200160405190810160405280929190818152602001828054610fb690611af1565b80156110035780601f10610fd857610100808354040283529160200191611003565b820191906000526020600020905b815481529060010190602001808311610fe657829003601f168201915b505050505081526020016002820154815260200160038201548152505081526020019060010190610f01565b50505050905090565b606060058054806020026020016040519081016040528092919081815260200182805480156110bc57602002820191906000526020600020905b8160009054906101000a900473ffffffffffffffffffffffffffffffffffffffff1673ffffffffffffffffffffffffffffffffffffffff1681526020019060010190808311611072575b5050505050905090565b6000600660008373ffffffffffffffffffffffffffffffffffffffff1673ffffffffffffffffffffffffffffffffffffffff16815260200190815260200160002060009054906101000a900460ff169050919050565b6111b28160405160240161113091906117c4565b6040516020818303038152906040527f41304fac000000000000000000000000000000000000000000000000000000007bffffffffffffffffffffffffffffffffffffffffffffffffffffffff19166020820180517bffffffffffffffffffffffffffffffffffffffffffffffffffffffff83818316178352505050506111b5565b50565b60008151905060006a636f6e736f6c652e6c6f679050602083016000808483855afa5050505050565b8280546111ea90611af1565b90600052602060002090601f01602090048101928261120c5760008555611253565b82601f1061122557805160ff1916838001178555611253565b82800160010185558215611253579182015b82811115611252578251825591602001919060010190611237565b5b5090506112609190611264565b5090565b5b8082111561127d576000816000905550600101611265565b5090565b600061129461128f84611924565b6118ff565b9050828152602081018484840111156112ac57600080fd5b6112b7848285611aaf565b509392505050565b6000813590506112ce81611d5d565b92915050565b6000813590506112e381611d74565b92915050565b600082601f8301126112fa57600080fd5b813561130a848260208601611281565b91505092915050565b60008135905061132281611d8b565b92915050565b60006020828403121561133a57600080fd5b6000611348848285016112bf565b91505092915050565b6000806040838503121561136457600080fd5b6000611372858286016112d4565b9250506020611383858286016112d4565b9150509250929050565b60006020828403121561139f57600080fd5b600082013567ffffffffffffffff8111156113b957600080fd5b6113c5848285016112e9565b91505092915050565b6000602082840312156113e057600080fd5b60006113ee84828501611313565b91505092915050565b60006114038383611432565b60208301905092915050565b600061141b8383611699565b905092915050565b61142c81611a67565b82525050565b61143b81611a55565b82525050565b61144a81611a55565b82525050565b600061145b82611975565b61146581856119b0565b935061147083611955565b8060005b838110156114a157815161148888826113f7565b975061149383611996565b925050600181019050611474565b5085935050505092915050565b60006114b982611980565b6114c381856119c1565b9350836020820285016114d585611965565b8060005b8581101561151157848403895281516114f2858261140f565b94506114fd836119a3565b925060208a019950506001810190506114d9565b50829750879550505050505092915050565b61152c81611a79565b82525050565b600061153d8261198b565b61154781856119dd565b9350611557818560208601611abe565b61156081611be1565b840191505092915050565b60006115768261198b565b61158081856119ee565b9350611590818560208601611abe565b61159981611be1565b840191505092915050565b60006115b16023836119ee565b91506115bc82611bf2565b604082019050919050565b60006115d46014836119ee565b91506115df82611c41565b602082019050919050565b60006115f76024836119ee565b915061160282611c6a565b604082019050919050565b600061161a6016836119ee565b915061162582611cb9565b602082019050919050565b600061163d6000836119d2565b915061164882611ce2565b600082019050919050565b60006116606025836119ee565b915061166b82611ce5565b604082019050919050565b60006116836017836119ee565b915061168e82611d34565b602082019050919050565b60006080830160008301516116b16000860182611432565b50602083015184820360208601526116c98282611532565b91505060408301516116de60408601826116fc565b5060608301516116f160608601826116fc565b508091505092915050565b61170581611aa5565b82525050565b61171481611aa5565b82525050565b600061172582611630565b9150819050919050565b60006020820190506117446000830184611441565b92915050565b600060208201905061175f6000830184611423565b92915050565b6000602082019050818103600083015261177f8184611450565b905092915050565b600060208201905081810360008301526117a181846114ae565b905092915050565b60006020820190506117be6000830184611523565b92915050565b600060208201905081810360008301526117de818461156b565b905092915050565b60006060820190508181036000830152611800818661156b565b905061180f602083018561170b565b61181c604083018461170b565b949350505050565b6000602082019050818103600083015261183d816115a4565b9050919050565b6000602082019050818103600083015261185d816115c7565b9050919050565b6000602082019050818103600083015261187d816115ea565b9050919050565b6000602082019050818103600083015261189d8161160d565b9050919050565b600060208201905081810360008301526118bd81611653565b9050919050565b600060208201905081810360008301526118dd81611676565b9050919050565b60006020820190506118f9600083018461170b565b92915050565b600061190961191a565b90506119158282611b23565b919050565b6000604051905090565b600067ffffffffffffffff82111561193f5761193e611bb2565b5b61194882611be1565b9050602081019050919050565b6000819050602082019050919050565b6000819050602082019050919050565b600081519050919050565b600081519050919050565b600081519050919050565b6000602082019050919050565b6000602082019050919050565b600082825260208201905092915050565b600082825260208201905092915050565b600081905092915050565b600082825260208201905092915050565b600082825260208201905092915050565b6000611a0a82611aa5565b9150611a1583611aa5565b9250827fffffffffffffffffffffffffffffffffffffffffffffffffffffffffffffffff03821115611a4a57611a49611b54565b5b828201905092915050565b6000611a6082611a85565b9050919050565b6000611a7282611a85565b9050919050565b60008115159050919050565b600073ffffffffffffffffffffffffffffffffffffffff82169050919050565b6000819050919050565b82818337600083830152505050565b60005b83811015611adc578082015181840152602081019050611ac1565b83811115611aeb576000848401525b50505050565b60006002820490506001821680611b0957607f821691505b60208210811415611b1d57611b1c611b83565b5b50919050565b611b2c82611be1565b810181811067ffffffffffffffff82111715611b4b57611b4a611bb2565b5b80604052505050565b7f4e487b7100000000000000000000000000000000000000000000000000000000600052601160045260246000fd5b7f4e487b7100000000000000000000000000000000000000000000000000000000600052602260045260246000fd5b7f4e487b7100000000000000000000000000000000000000000000000000000000600052604160045260246000fd5b6000601f19601f8301169050919050565b7f4f6e6c792061646d696e2063616e2061636365737320746869732066756e637460008201527f696f6e0000000000000000000000000000000000000000000000000000000000602082015250565b7f4661696c656420746f2073656e64206d6f6e6579000000000000000000000000600082015250565b7f4f6e6c79206f776e6572732063616e2061636365737320746869732066756e6360008201527f74696f6e00000000000000000000000000000000000000000000000000000000602082015250565b7f56616c756520746f6f206c6f7720746f2073656e642100000000000000000000600082015250565b50565b7f596f7520646f6e2774206861766520656e6f75676820657468657220666f722060008201527f7468697321000000000000000000000000000000000000000000000000000000602082015250565b7f41646472657373657320646f206e6f74206d6174636821000000000000000000600082015250565b611d6681611a55565b8114611d7157600080fd5b50565b611d7d81611a67565b8114611d8857600080fd5b50565b611d9481611aa5565b8114611d9f57600080fd5b5056fea2646970667358221220d24e75d132c3442546bea3827093d8f724094c3a7f9545f398c51f22db4b263864736f6c63430008040033",
  "linkReferences": {},
  "deployedLinkReferences": {}
}